{
  "contractName": "Auction",
  "abi": [
    {
      "anonymous": false,
      "inputs": [
        {
          "indexed": true,
          "internalType": "address",
          "name": "highestBidder",
          "type": "address"
        },
        {
          "indexed": false,
          "internalType": "uint256",
          "name": "highestBid",
          "type": "uint256"
        }
      ],
      "name": "BidEvent",
      "type": "event"
    },
    {
      "anonymous": false,
      "inputs": [
        {
          "indexed": false,
          "internalType": "string",
          "name": "message",
          "type": "string"
        },
        {
          "indexed": false,
          "internalType": "uint256",
          "name": "time",
          "type": "uint256"
        }
      ],
      "name": "CanceledEvent",
      "type": "event"
    },
    {
      "anonymous": false,
      "inputs": [
        {
          "indexed": false,
          "internalType": "address",
          "name": "withdrawer",
          "type": "address"
        },
        {
          "indexed": false,
          "internalType": "uint256",
          "name": "amount",
          "type": "uint256"
        }
      ],
      "name": "WithdrawalEvent",
      "type": "event"
    },
    {
      "constant": true,
      "inputs": [],
      "name": "Mycar",
      "outputs": [
        {
          "internalType": "string",
          "name": "Brand",
          "type": "string"
        },
        {
          "internalType": "string",
          "name": "Rnumber",
          "type": "string"
        }
      ],
      "payable": false,
      "stateMutability": "view",
      "type": "function"
    },
    {
      "constant": true,
      "inputs": [],
      "name": "STATE",
      "outputs": [
        {
          "internalType": "enum Auction.auction_state",
          "name": "",
          "type": "uint8"
        }
      ],
      "payable": false,
      "stateMutability": "view",
      "type": "function"
    },
    {
      "constant": true,
      "inputs": [],
      "name": "auction_end",
      "outputs": [
        {
          "internalType": "uint256",
          "name": "",
          "type": "uint256"
        }
      ],
      "payable": false,
      "stateMutability": "view",
      "type": "function"
    },
    {
      "constant": true,
      "inputs": [],
      "name": "auction_start",
      "outputs": [
        {
          "internalType": "uint256",
          "name": "",
          "type": "uint256"
        }
      ],
      "payable": false,
      "stateMutability": "view",
      "type": "function"
    },
    {
      "constant": true,
      "inputs": [
        {
          "internalType": "address",
          "name": "",
          "type": "address"
        }
      ],
      "name": "bids",
      "outputs": [
        {
          "internalType": "uint256",
          "name": "",
          "type": "uint256"
        }
      ],
      "payable": false,
      "stateMutability": "view",
      "type": "function"
    },
    {
      "constant": true,
      "inputs": [],
      "name": "highestBid",
      "outputs": [
        {
          "internalType": "uint256",
          "name": "",
          "type": "uint256"
        }
      ],
      "payable": false,
      "stateMutability": "view",
      "type": "function"
    },
    {
      "constant": true,
      "inputs": [],
      "name": "highestBidder",
      "outputs": [
        {
          "internalType": "address",
          "name": "",
          "type": "address"
        }
      ],
      "payable": false,
      "stateMutability": "view",
      "type": "function"
    },
    {
      "constant": false,
      "inputs": [],
      "name": "bid",
      "outputs": [
        {
          "internalType": "bool",
          "name": "",
          "type": "bool"
        }
      ],
      "payable": true,
      "stateMutability": "payable",
      "type": "function"
    },
    {
      "constant": false,
      "inputs": [],
      "name": "withdraw",
      "outputs": [
        {
          "internalType": "bool",
          "name": "",
          "type": "bool"
        }
      ],
      "payable": false,
      "stateMutability": "nonpayable",
      "type": "function"
    },
    {
      "constant": false,
      "inputs": [],
      "name": "cancel_auction",
      "outputs": [
        {
          "internalType": "bool",
          "name": "",
          "type": "bool"
        }
      ],
      "payable": false,
      "stateMutability": "nonpayable",
      "type": "function"
    }
  ],
  "bytecode": "0x608060405234801561001057600080fd5b50610571806100206000396000f3fe6080604052600436106100915760003560e01c806378f453401161005957806378f453401461027757806391f90157146102a2578063c458b65a146102f9578063c486456c14610324578063d57bde791461035d57610091565b80630216f202146100965780631998aeef146101925780633ba88ca1146101b45780633ccfd60b146101e357806362ea82db14610212575b600080fd5b3480156100a257600080fd5b506100ab610388565b604051808060200180602001838103835285818151815260200191508051906020019080838360005b838110156100ef5780820151818401526020810190506100d4565b50505050905090810190601f16801561011c5780820380516001836020036101000a031916815260200191505b50838103825284818151815260200191508051906020019080838360005b8381101561015557808201518184015260208101905061013a565b50505050905090810190601f1680156101825780820380516001836020036101000a031916815260200191505b5094505050505060405180910390f35b61019a6104ca565b604051808215151515815260200191505060405180910390f35b3480156101c057600080fd5b506101c96104cf565b604051808215151515815260200191505060405180910390f35b3480156101ef57600080fd5b506101f86104d4565b604051808215151515815260200191505060405180910390f35b34801561021e57600080fd5b506102616004803603602081101561023557600080fd5b81019080803573ffffffffffffffffffffffffffffffffffffffff1690602001909291905050506104d9565b6040518082815260200191505060405180910390f35b34801561028357600080fd5b5061028c6104f1565b6040518082815260200191505060405180910390f35b3480156102ae57600080fd5b506102b76104f7565b604051808273ffffffffffffffffffffffffffffffffffffffff1673ffffffffffffffffffffffffffffffffffffffff16815260200191505060405180910390f35b34801561030557600080fd5b5061030e61051d565b6040518082815260200191505060405180910390f35b34801561033057600080fd5b50610339610523565b6040518082600181111561034957fe5b60ff16815260200191505060405180910390f35b34801561036957600080fd5b50610372610536565b6040518082815260200191505060405180910390f35b6005806000018054600181600116156101000203166002900480601f0160208091040260200160405190810160405280929190818152602001828054600181600116156101000203166002900480156104225780601f106103f757610100808354040283529160200191610422565b820191906000526020600020905b81548152906001019060200180831161040557829003601f168201915b505050505090806001018054600181600116156101000203166002900480601f0160208091040260200160405190810160405280929190818152602001828054600181600116156101000203166002900480156104c05780601f10610495576101008083540402835291602001916104c0565b820191906000526020600020905b8154815290600101906020018083116104a357829003601f168201915b5050505050905082565b600090565b600090565b600090565b60086020528060005260406000206000915090505481565b60015481565b600460009054906101000a900473ffffffffffffffffffffffffffffffffffffffff1681565b60025481565b600960009054906101000a900460ff1681565b6003548156fea265627a7a72315820a91293075ffaeb28d06338fd81751e8ab645f87cb6e2630774cabfc28554bbeb64736f6c63430005100032",
  "source": "pragma solidity ^0.5.16;\r\n\r\ncontract Auction {\r\n    address internal auction_owner;\r\n    uint256 public auction_start;\r\n    uint256 public auction_end;\r\n    uint256 public highestBid;\r\n    address public highestBidder;\r\n\r\n    enum auction_state {\r\n        CANCELLED,\r\n        STARTED\r\n    }\r\n\r\n    struct car {\r\n        string Brand;\r\n        string Rnumber;\r\n    }\r\n    car public Mycar;\r\n    address[] bidders;\r\n\r\n    mapping(address => uint256) public bids;\r\n\r\n    auction_state public STATE;\r\n\r\n    modifier an_ongoing_auction() {\r\n        require(now <= auction_end);\r\n        _;\r\n    }\r\n\r\n    modifier only_owner() {\r\n        require(msg.sender == auction_owner);\r\n        _;\r\n    }\r\n\r\n    function bid() public payable returns (bool) {}\r\n\r\n    function withdraw() public returns (bool) {}\r\n\r\n    function cancel_auction() external returns (bool) {}\r\n\r\n    event BidEvent(address indexed highestBidder, uint256 highestBid);\r\n    event WithdrawalEvent(address withdrawer, uint256 amount);\r\n    event CanceledEvent(string message, uint256 time);\r\n}\r\n\r\ncontract MyAuction is Auction {\r\n    constructor(\r\n        uint256 _biddingTime,\r\n        address _owner,\r\n        string memory _brand,\r\n        string memory _Rnumber\r\n    ) public {\r\n        auction_owner = _owner;\r\n        auction_start = now;\r\n        auction_end = auction_start + _biddingTime * 1 hours;\r\n        STATE = auction_state.STARTED;\r\n        Mycar.Brand = _brand;\r\n        Mycar.Rnumber = _Rnumber;\r\n    }\r\n\r\n    function bid() public payable an_ongoing_auction returns (bool) {\r\n        require(\r\n            bids[msg.sender] + msg.value > highestBid,\r\n            \"You can't bid, Make a higher Bid\"\r\n        );\r\n\r\n        highestBidder = msg.sender;\r\n        highestBid = msg.value;\r\n        bidders.push(msg.sender);\r\n        bids[msg.sender] = bids[msg.sender] + msg.value;\r\n        emit BidEvent(highestBidder, highestBid);\r\n\r\n        return true;\r\n    }\r\n\r\n    function cancel_auction()\r\n        external\r\n        only_owner\r\n        an_ongoing_auction\r\n        returns (bool)\r\n    {\r\n        STATE = auction_state.CANCELLED;\r\n        emit CanceledEvent(\"Auction Cancelled\", now);\r\n        return true;\r\n    }\r\n\r\n    function destruct_auction() external only_owner returns (bool) {\r\n        require(\r\n            now > auction_end,\r\n            \"You can't destruct the contract,The auction is still open\"\r\n        );\r\n\r\n        for (uint256 i = 0; i < bidders.length; i++) {\r\n            assert(bids[bidders[i]] == 0);\r\n        }\r\n\r\n        //selfdestruct(auction_owner);\r\n        return true;\r\n    }\r\n\r\n    function withdraw() public returns (bool) {\r\n        require(\r\n            now > auction_end,\r\n            \"You can't withdraw, the auction is still open\"\r\n        );\r\n        uint256 amount;\r\n\r\n        amount = bids[msg.sender];\r\n        bids[msg.sender] = 0;\r\n        msg.sender.transfer(amount);\r\n        emit WithdrawalEvent(msg.sender, amount);\r\n        return true;\r\n    }\r\n\r\n    function get_owner() public view returns (address) {\r\n        return auction_owner;\r\n    }\r\n}\r\n",
  "sourcePath": "C:/Users/Suparerk/Documents/AdvFintech/04_Auction/contracts/Auction.sol",
  "compiler": {
    "name": "solc",
    "version": "0.5.16+commit.9c3226ce.Emscripten.clang"
  },
  "schemaVersion": "3.4.1",
  "updatedAt": "2021-07-01T08:23:31.032Z",
  "devdoc": {
    "methods": {}
  },
  "userdoc": {
    "methods": {}
  }
}