{
  "contractName": "MyAuction",
  "abi": [
    {
      "inputs": [
        {
          "internalType": "uint256",
          "name": "_biddingTime",
          "type": "uint256"
        },
        {
          "internalType": "address",
          "name": "_owner",
          "type": "address"
        },
        {
          "internalType": "string",
          "name": "_brand",
          "type": "string"
        },
        {
          "internalType": "string",
          "name": "_Rnumber",
          "type": "string"
        }
      ],
      "payable": false,
      "stateMutability": "nonpayable",
      "type": "constructor"
    },
    {
      "anonymous": false,
      "inputs": [
        {
          "indexed": true,
          "internalType": "address",
          "name": "highestBidder",
          "type": "address"
        },
        {
          "indexed": false,
          "internalType": "uint256",
          "name": "highestBid",
          "type": "uint256"
        }
      ],
      "name": "BidEvent",
      "type": "event"
    },
    {
      "anonymous": false,
      "inputs": [
        {
          "indexed": false,
          "internalType": "string",
          "name": "message",
          "type": "string"
        },
        {
          "indexed": false,
          "internalType": "uint256",
          "name": "time",
          "type": "uint256"
        }
      ],
      "name": "CanceledEvent",
      "type": "event"
    },
    {
      "anonymous": false,
      "inputs": [
        {
          "indexed": false,
          "internalType": "address",
          "name": "withdrawer",
          "type": "address"
        },
        {
          "indexed": false,
          "internalType": "uint256",
          "name": "amount",
          "type": "uint256"
        }
      ],
      "name": "WithdrawalEvent",
      "type": "event"
    },
    {
      "constant": true,
      "inputs": [],
      "name": "Mycar",
      "outputs": [
        {
          "internalType": "string",
          "name": "Brand",
          "type": "string"
        },
        {
          "internalType": "string",
          "name": "Rnumber",
          "type": "string"
        }
      ],
      "payable": false,
      "stateMutability": "view",
      "type": "function"
    },
    {
      "constant": true,
      "inputs": [],
      "name": "STATE",
      "outputs": [
        {
          "internalType": "enum Auction.auction_state",
          "name": "",
          "type": "uint8"
        }
      ],
      "payable": false,
      "stateMutability": "view",
      "type": "function"
    },
    {
      "constant": true,
      "inputs": [],
      "name": "auction_end",
      "outputs": [
        {
          "internalType": "uint256",
          "name": "",
          "type": "uint256"
        }
      ],
      "payable": false,
      "stateMutability": "view",
      "type": "function"
    },
    {
      "constant": true,
      "inputs": [],
      "name": "auction_start",
      "outputs": [
        {
          "internalType": "uint256",
          "name": "",
          "type": "uint256"
        }
      ],
      "payable": false,
      "stateMutability": "view",
      "type": "function"
    },
    {
      "constant": true,
      "inputs": [
        {
          "internalType": "address",
          "name": "",
          "type": "address"
        }
      ],
      "name": "bids",
      "outputs": [
        {
          "internalType": "uint256",
          "name": "",
          "type": "uint256"
        }
      ],
      "payable": false,
      "stateMutability": "view",
      "type": "function"
    },
    {
      "constant": true,
      "inputs": [],
      "name": "highestBid",
      "outputs": [
        {
          "internalType": "uint256",
          "name": "",
          "type": "uint256"
        }
      ],
      "payable": false,
      "stateMutability": "view",
      "type": "function"
    },
    {
      "constant": true,
      "inputs": [],
      "name": "highestBidder",
      "outputs": [
        {
          "internalType": "address",
          "name": "",
          "type": "address"
        }
      ],
      "payable": false,
      "stateMutability": "view",
      "type": "function"
    },
    {
      "constant": false,
      "inputs": [],
      "name": "bid",
      "outputs": [
        {
          "internalType": "bool",
          "name": "",
          "type": "bool"
        }
      ],
      "payable": true,
      "stateMutability": "payable",
      "type": "function"
    },
    {
      "constant": false,
      "inputs": [],
      "name": "cancel_auction",
      "outputs": [
        {
          "internalType": "bool",
          "name": "",
          "type": "bool"
        }
      ],
      "payable": false,
      "stateMutability": "nonpayable",
      "type": "function"
    },
    {
      "constant": false,
      "inputs": [],
      "name": "destruct_auction",
      "outputs": [
        {
          "internalType": "bool",
          "name": "",
          "type": "bool"
        }
      ],
      "payable": false,
      "stateMutability": "nonpayable",
      "type": "function"
    },
    {
      "constant": false,
      "inputs": [],
      "name": "withdraw",
      "outputs": [
        {
          "internalType": "bool",
          "name": "",
          "type": "bool"
        }
      ],
      "payable": false,
      "stateMutability": "nonpayable",
      "type": "function"
    },
    {
      "constant": true,
      "inputs": [],
      "name": "get_owner",
      "outputs": [
        {
          "internalType": "address",
          "name": "",
          "type": "address"
        }
      ],
      "payable": false,
      "stateMutability": "view",
      "type": "function"
    }
  ],
  "bytecode": "0x60806040523480156200001157600080fd5b506040516200104838038062001048833981810160405260808110156200003757600080fd5b810190808051906020019092919080519060200190929190805160405193929190846401000000008211156200006c57600080fd5b838201915060208201858111156200008357600080fd5b8251866001820283011164010000000082111715620000a157600080fd5b8083526020830192505050908051906020019080838360005b83811015620000d7578082015181840152602081019050620000ba565b50505050905090810190601f168015620001055780820380516001836020036101000a031916815260200191505b50604052602001805160405193929190846401000000008211156200012957600080fd5b838201915060208201858111156200014057600080fd5b82518660018202830111640100000000821117156200015e57600080fd5b8083526020830192505050908051906020019080838360005b838110156200019457808201518184015260208101905062000177565b50505050905090810190601f168015620001c25780820380516001836020036101000a031916815260200191505b50604052505050826000806101000a81548173ffffffffffffffffffffffffffffffffffffffff021916908373ffffffffffffffffffffffffffffffffffffffff16021790555042600181905550610e108402600154016002819055506001600960006101000a81548160ff021916908360018111156200023f57fe5b021790555081600560000190805190602001906200025f92919062000286565b5080600560010190805190602001906200027b92919062000286565b505050505062000335565b828054600181600116156101000203166002900490600052602060002090601f016020900481019282601f10620002c957805160ff1916838001178555620002fa565b82800160010185558215620002fa579182015b82811115620002f9578251825591602001919060010190620002dc565b5b5090506200030991906200030d565b5090565b6200033291905b808211156200032e57600081600090555060010162000314565b5090565b90565b610d0380620003456000396000f3fe6080604052600436106100a75760003560e01c806378f453401161006457806378f45340146102e457806391f901571461030f578063bbafd3d414610366578063c458b65a14610395578063c486456c146103c0578063d57bde79146103f9576100a7565b80630216f202146100ac5780630ac298dc146101a85780631998aeef146101ff5780633ba88ca1146102215780633ccfd60b1461025057806362ea82db1461027f575b600080fd5b3480156100b857600080fd5b506100c1610424565b604051808060200180602001838103835285818151815260200191508051906020019080838360005b838110156101055780820151818401526020810190506100ea565b50505050905090810190601f1680156101325780820380516001836020036101000a031916815260200191505b50838103825284818151815260200191508051906020019080838360005b8381101561016b578082015181840152602081019050610150565b50505050905090810190601f1680156101985780820380516001836020036101000a031916815260200191505b5094505050505060405180910390f35b3480156101b457600080fd5b506101bd610566565b604051808273ffffffffffffffffffffffffffffffffffffffff1673ffffffffffffffffffffffffffffffffffffffff16815260200191505060405180910390f35b61020761058f565b604051808215151515815260200191505060405180910390f35b34801561022d57600080fd5b50610236610804565b604051808215151515815260200191505060405180910390f35b34801561025c57600080fd5b50610265610909565b604051808215151515815260200191505060405180910390f35b34801561028b57600080fd5b506102ce600480360360208110156102a257600080fd5b81019080803573ffffffffffffffffffffffffffffffffffffffff169060200190929190505050610aa8565b6040518082815260200191505060405180910390f35b3480156102f057600080fd5b506102f9610ac0565b6040518082815260200191505060405180910390f35b34801561031b57600080fd5b50610324610ac6565b604051808273ffffffffffffffffffffffffffffffffffffffff1673ffffffffffffffffffffffffffffffffffffffff16815260200191505060405180910390f35b34801561037257600080fd5b5061037b610aec565b604051808215151515815260200191505060405180910390f35b3480156103a157600080fd5b506103aa610c49565b6040518082815260200191505060405180910390f35b3480156103cc57600080fd5b506103d5610c4f565b604051808260018111156103e557fe5b60ff16815260200191505060405180910390f35b34801561040557600080fd5b5061040e610c62565b6040518082815260200191505060405180910390f35b6005806000018054600181600116156101000203166002900480601f0160208091040260200160405190810160405280929190818152602001828054600181600116156101000203166002900480156104be5780601f10610493576101008083540402835291602001916104be565b820191906000526020600020905b8154815290600101906020018083116104a157829003601f168201915b505050505090806001018054600181600116156101000203166002900480601f01602080910402602001604051908101604052809291908181526020018280546001816001161561010002031660029004801561055c5780601f106105315761010080835404028352916020019161055c565b820191906000526020600020905b81548152906001019060200180831161053f57829003601f168201915b5050505050905082565b60008060009054906101000a900473ffffffffffffffffffffffffffffffffffffffff16905090565b60006002544211156105a057600080fd5b60035434600860003373ffffffffffffffffffffffffffffffffffffffff1673ffffffffffffffffffffffffffffffffffffffff168152602001908152602001600020540111610658576040517f08c379a00000000000000000000000000000000000000000000000000000000081526004018080602001828103825260208152602001807f596f752063616e2774206269642c204d616b652061206869676865722042696481525060200191505060405180910390fd5b33600460006101000a81548173ffffffffffffffffffffffffffffffffffffffff021916908373ffffffffffffffffffffffffffffffffffffffff1602179055503460038190555060073390806001815401808255809150509060018203906000526020600020016000909192909190916101000a81548173ffffffffffffffffffffffffffffffffffffffff021916908373ffffffffffffffffffffffffffffffffffffffff1602179055505034600860003373ffffffffffffffffffffffffffffffffffffffff1673ffffffffffffffffffffffffffffffffffffffff1681526020019081526020016000205401600860003373ffffffffffffffffffffffffffffffffffffffff1673ffffffffffffffffffffffffffffffffffffffff16815260200190815260200160002081905550600460009054906101000a900473ffffffffffffffffffffffffffffffffffffffff1673ffffffffffffffffffffffffffffffffffffffff167f0d993d4f8a84158f5329713d6d13ef54e77b325040c887c8b3e565cfd0cd3e216003546040518082815260200191505060405180910390a26001905090565b60008060009054906101000a900473ffffffffffffffffffffffffffffffffffffffff1673ffffffffffffffffffffffffffffffffffffffff163373ffffffffffffffffffffffffffffffffffffffff161461085f57600080fd5b60025442111561086e57600080fd5b6000600960006101000a81548160ff0219169083600181111561088d57fe5b02179055507f06b08932edfa95ecf10e18f8e389c58332551bbfe5faf843ed9afb329fd14118426040518080602001838152602001828103825260118152602001807f41756374696f6e2043616e63656c6c65640000000000000000000000000000008152506020019250505060405180910390a16001905090565b60006002544211610965576040517f08c379a000000000000000000000000000000000000000000000000000000000815260040180806020018281038252602d815260200180610c69602d913960400191505060405180910390fd5b6000600860003373ffffffffffffffffffffffffffffffffffffffff1673ffffffffffffffffffffffffffffffffffffffff1681526020019081526020016000205490506000600860003373ffffffffffffffffffffffffffffffffffffffff1673ffffffffffffffffffffffffffffffffffffffff168152602001908152602001600020819055503373ffffffffffffffffffffffffffffffffffffffff166108fc829081150290604051600060405180830381858888f19350505050158015610a34573d6000803e3d6000fd5b507f2f174ca282119315c59efaf21147aef438581dabdeb498198ae28964373dd8bc3382604051808373ffffffffffffffffffffffffffffffffffffffff1673ffffffffffffffffffffffffffffffffffffffff1681526020018281526020019250505060405180910390a1600191505090565b60086020528060005260406000206000915090505481565b60015481565b600460009054906101000a900473ffffffffffffffffffffffffffffffffffffffff1681565b60008060009054906101000a900473ffffffffffffffffffffffffffffffffffffffff1673ffffffffffffffffffffffffffffffffffffffff163373ffffffffffffffffffffffffffffffffffffffff1614610b4757600080fd5b6002544211610ba1576040517f08c379a0000000000000000000000000000000000000000000000000000000008152600401808060200182810382526039815260200180610c966039913960400191505060405180910390fd5b60008090505b600780549050811015610c415760006008600060078481548110610bc757fe5b9060005260206000200160009054906101000a900473ffffffffffffffffffffffffffffffffffffffff1673ffffffffffffffffffffffffffffffffffffffff1673ffffffffffffffffffffffffffffffffffffffff1681526020019081526020016000205414610c3457fe5b8080600101915050610ba7565b506001905090565b60025481565b600960009054906101000a900460ff1681565b6003548156fe596f752063616e27742077697468647261772c207468652061756374696f6e206973207374696c6c206f70656e596f752063616e27742064657374727563742074686520636f6e74726163742c5468652061756374696f6e206973207374696c6c206f70656ea265627a7a72315820f9932ea629baca82529afd9f910351cff9dc84a4cf3dc111bdbc73f4de93590864736f6c63430005100032",
  "source": "pragma solidity ^0.5.16;\r\n\r\ncontract Auction {\r\n    address internal auction_owner;\r\n    uint256 public auction_start;\r\n    uint256 public auction_end;\r\n    uint256 public highestBid;\r\n    address public highestBidder;\r\n\r\n    enum auction_state {\r\n        CANCELLED,\r\n        STARTED\r\n    }\r\n\r\n    struct car {\r\n        string Brand;\r\n        string Rnumber;\r\n    }\r\n    car public Mycar;\r\n    address[] bidders;\r\n\r\n    mapping(address => uint256) public bids;\r\n\r\n    auction_state public STATE;\r\n\r\n    modifier an_ongoing_auction() {\r\n        require(now <= auction_end);\r\n        _;\r\n    }\r\n\r\n    modifier only_owner() {\r\n        require(msg.sender == auction_owner);\r\n        _;\r\n    }\r\n\r\n    function bid() public payable returns (bool) {}\r\n\r\n    function withdraw() public returns (bool) {}\r\n\r\n    function cancel_auction() external returns (bool) {}\r\n\r\n    event BidEvent(address indexed highestBidder, uint256 highestBid);\r\n    event WithdrawalEvent(address withdrawer, uint256 amount);\r\n    event CanceledEvent(string message, uint256 time);\r\n}\r\n\r\ncontract MyAuction is Auction {\r\n    constructor(\r\n        uint256 _biddingTime,\r\n        address _owner,\r\n        string memory _brand,\r\n        string memory _Rnumber\r\n    ) public {\r\n        auction_owner = _owner;\r\n        auction_start = now;\r\n        auction_end = auction_start + _biddingTime * 1 hours;\r\n        STATE = auction_state.STARTED;\r\n        Mycar.Brand = _brand;\r\n        Mycar.Rnumber = _Rnumber;\r\n    }\r\n\r\n    function bid() public payable an_ongoing_auction returns (bool) {\r\n        require(\r\n            bids[msg.sender] + msg.value > highestBid,\r\n            \"You can't bid, Make a higher Bid\"\r\n        );\r\n\r\n        highestBidder = msg.sender;\r\n        highestBid = msg.value;\r\n        bidders.push(msg.sender);\r\n        bids[msg.sender] = bids[msg.sender] + msg.value;\r\n        emit BidEvent(highestBidder, highestBid);\r\n\r\n        return true;\r\n    }\r\n\r\n    function cancel_auction()\r\n        external\r\n        only_owner\r\n        an_ongoing_auction\r\n        returns (bool)\r\n    {\r\n        STATE = auction_state.CANCELLED;\r\n        emit CanceledEvent(\"Auction Cancelled\", now);\r\n        return true;\r\n    }\r\n\r\n    function destruct_auction() external only_owner returns (bool) {\r\n        require(\r\n            now > auction_end,\r\n            \"You can't destruct the contract,The auction is still open\"\r\n        );\r\n\r\n        for (uint256 i = 0; i < bidders.length; i++) {\r\n            assert(bids[bidders[i]] == 0);\r\n        }\r\n\r\n        //selfdestruct(auction_owner);\r\n        return true;\r\n    }\r\n\r\n    function withdraw() public returns (bool) {\r\n        require(\r\n            now > auction_end,\r\n            \"You can't withdraw, the auction is still open\"\r\n        );\r\n        uint256 amount;\r\n\r\n        amount = bids[msg.sender];\r\n        bids[msg.sender] = 0;\r\n        msg.sender.transfer(amount);\r\n        emit WithdrawalEvent(msg.sender, amount);\r\n        return true;\r\n    }\r\n\r\n    function get_owner() public view returns (address) {\r\n        return auction_owner;\r\n    }\r\n}\r\n",
  "sourcePath": "C:/Users/Suparerk/Documents/AdvFintech/04_Auction/contracts/Auction.sol",
  "compiler": {
    "name": "solc",
    "version": "0.5.16+commit.9c3226ce.Emscripten.clang"
  },
  "schemaVersion": "3.4.1",
  "updatedAt": "2021-07-01T09:13:41.574Z",
  "networkType": "ethereum",
  "devdoc": {
    "methods": {}
  },
  "userdoc": {
    "methods": {}
  }
}